:100000000C9434000C9451000C9451000C94510049
:100010000C9451000C9451000C9451000C9451001C
:100020000C9451000C9451000C9451000C9451000C
:100030000C9451000C9451000C9451000C945100FC
:100040000C9451000C9488010C9451000C945100B4
:100050000C9451000C9451000C9451000C945100DC
:100060000C9451000C94510011241FBECFEFD4E02A
:10007000DEBFCDBF11E0A0E0B1E0ECEAF5E002C0E8
:1000800005900D92A034B107D9F714E0A0E4B1E0D7
:1000900001C01D92A830B107E1F70E9495020C94AF
:1000A000D4020C940000CF93DF93BC014FE350E0E7
:1000B000CFE3D0E0DE01A41BB50BFB01E40FF51F7D
:1000C0002081822F829586958770FD01E95BFC4F28
:1000D0008083822F90E08C7190709595879595958F
:1000E0008795FD01E953FC4F80832370A957BC4FCE
:1000F0002C93415050408FEF4F3F5807D9F6109244
:100100000704DF91CF910895DF93CF930F92CDB77E
:10011000DEB7898342982981220F220F220F0DC05A
:10012000409890914201E95BFC4F8081981710F450
:10013000419A01C04198409A2F5FE22FF0E08981F7
:1001400090E0019663E0880F991F6A95E1F7E81740
:10015000F90734F32981220F220F220F0DC0409896
:1001600090914201E957FC4F8081981710F4419A11
:1001700001C04198409A2F5FE22FF0E0898190E022
:10018000019653E0880F991F5A95E1F7E817F90790
:1001900034F32981220F220F220F0DC04098909135
:1001A0004201E953FC4F8081981710F4419A01C035
:1001B0004198409A2F5FE22FF0E0898190E001960C
:1001C00043E0880F991F4A95E1F7E817F90734F3E0
:1001D000449A429A298181E090E002C0880F991FD9
:1001E0002A95E2F78BB944980F90CF91DF9108954B
:1001F0001F9310E0812F0E9484001F5F1830D1F7F9
:100200001F910895CF93DF93F89480E090E027E06A
:10021000FC01E95BFC4F2083FC01E953FC4F108299
:10022000FC01E957FC4F108201968034910581F75B
:10023000C0E0D0E00E94F800219683E0C83ED807D5
:10024000C9F780E090E027E0FC01E95BFC4F1082F9
:10025000FC01E953FC4F2083FC01E957FC4F10825D
:1002600001968034910581F7C0E0D0E00E94F8004B
:10027000219683E0C83ED807C9F780E090E027E0E8
:10028000FC01E95BFC4F1082FC01E953FC4F10823A
:10029000FC01E957FC4F208301968034910581F7DA
:1002A000C0E0D0E00E94F800219683E0C83ED80765
:1002B000C9F71BB8DF91CF91089591E095BB982FB6
:1002C000919596BDA89BFECF81E085BB96BDA89B6E
:1002D000FECF0895CF93DF93EC010DC08AEF0E940B
:1002E0005D018AEF0E945D018AEF0E945D018AEF45
:1002F0000E945D012197209789F7DF91CF910895A2
:10030000F999FECF92BD81BD60BDFA9AF99A089520
:100310001F920F920FB60F9211242F933F934F937A
:100320005F936F937F938F939F93AF93BF93EF935D
:10033000FF93F8948EB58093460180914501882300
:10034000D1F4809146018532B1F080914601863228
:1003500091F0809140019091410120914601FC0172
:10036000E95BFE4F20830196909341018093400109
:10037000809146018EBD809145018823C1F0809116
:100380004601882391F080914601893070F4809174
:100390004601809343018091460181508EBD60915A
:1003A000430181E090E00E9480011092450190910C
:1003B0004601953221F481E0809345019EBD8091F4
:1003C0004601863229F410924101109240018EBDFF
:1003D0007894FF91EF91BF91AF919F918F917F9111
:1003E0006F915F914F913F912F910F900FBE0F90A2
:1003F0001F9018951F9380E184B98CE285B98FE135
:1004000087B98FEF8AB9409A439A419A429A449A9F
:1004100083EC8CBDF999FECF12BC11BCF89A80B563
:1004200080934401809144018F3F91F411E0109337
:1004300044016091440180E090E00E9480011093AB
:1004400043016091430181E090E00E94800128C057
:10045000F999FECF12BC11BCF89A80B58093440183
:10046000809144018A3058F4809144018F5F8093D9
:1004700044016091440180E090E00E948001F9997C
:10048000FECF81E090E092BD81BDF89A80B5809367
:10049000430180914301893018F081E0809343014A
:1004A0001F910895F999FECF92BD81BDF89A80B54C
:1004B00008951F93CF93DF938150E82FF0E073E00E
:1004C000EE0FFF1F7A95E1F7E95FFE4F60E070E005
:1004D00010EE1CC0CE01022E02C0959587950A949D
:1004E000E2F7DA01A95BBE4F80FF02C01C9301C096
:1004F0001C922F5F3F4F485F5F4F2830310551F707
:100500006F5F7F4F31976830710539F08081C82F58
:10051000D0E0AB0120E030E0DDCF87E491E00E9445
:100520005300DF91CF911F9108951F93CF93DF93D5
:100530000E94FA0180914401823010F40E9402016D
:10054000809143010E945902C0E0D0E00E94F8006F
:10055000809142018F5F877080934201219683E1F1
:10056000C838D80799F7789411E01A9B02C0109305
:10057000070480910704813071F410920704809180
:10058000430190E0E6E0880F991FEA95E1F7895F63
:100590009E4F0E9453000E94F800809142018F5F9D
:0C05A000877080934201E1CFF894FFCFF8
:1005AC0000008482FF808000000082C1A1918E0037
:1005BC000000428189760000000F080808FF000047
:1005CC000000008F8989710000007C8A8989710084
:1005DC000001C131090503000076898989897600FB
:00000001FF
